{
  "address": "0xf244cC25EAD03a99de8B407A3237aaf54D1b779C",
  "abi": [
    {
      "inputs": [
        {
          "internalType": "address",
          "name": "_stampsRegistry",
          "type": "address"
        }
      ],
      "stateMutability": "nonpayable",
      "type": "constructor"
    },
    {
      "inputs": [],
      "name": "BzzApproveFailed",
      "type": "error"
    },
    {
      "inputs": [],
      "name": "BzzTransferFailed",
      "type": "error"
    },
    {
      "inputs": [],
      "name": "InsufficientNativeValue",
      "type": "error"
    },
    {
      "inputs": [],
      "name": "InvalidCallback",
      "type": "error"
    },
    {
      "inputs": [],
      "name": "InvalidPath",
      "type": "error"
    },
    {
      "inputs": [],
      "name": "NativeRefundFailed",
      "type": "error"
    },
    {
      "inputs": [],
      "name": "PoolNotFound",
      "type": "error"
    },
    {
      "inputs": [
        {
          "internalType": "uint256",
          "name": "required",
          "type": "uint256"
        },
        {
          "internalType": "uint256",
          "name": "maximum",
          "type": "uint256"
        }
      ],
      "name": "SlippageExceeded",
      "type": "error"
    },
    {
      "anonymous": false,
      "inputs": [
        {
          "indexed": true,
          "internalType": "bytes32",
          "name": "batchId",
          "type": "bytes32"
        },
        {
          "indexed": true,
          "internalType": "address",
          "name": "owner",
          "type": "address"
        },
        {
          "indexed": false,
          "internalType": "address",
          "name": "tokenIn",
          "type": "address"
        },
        {
          "indexed": false,
          "internalType": "uint256",
          "name": "amountIn",
          "type": "uint256"
        },
        {
          "indexed": false,
          "internalType": "uint256",
          "name": "bzzAmount",
          "type": "uint256"
        }
      ],
      "name": "BatchCreatedViaSwap",
      "type": "event"
    },
    {
      "anonymous": false,
      "inputs": [
        {
          "indexed": true,
          "internalType": "bytes32",
          "name": "batchId",
          "type": "bytes32"
        },
        {
          "indexed": false,
          "internalType": "address",
          "name": "tokenIn",
          "type": "address"
        },
        {
          "indexed": false,
          "internalType": "uint256",
          "name": "amountIn",
          "type": "uint256"
        },
        {
          "indexed": false,
          "internalType": "uint256",
          "name": "bzzAmount",
          "type": "uint256"
        }
      ],
      "name": "BatchToppedUpViaSwap",
      "type": "event"
    },
    {
      "inputs": [],
      "name": "BZZ",
      "outputs": [
        {
          "internalType": "address",
          "name": "",
          "type": "address"
        }
      ],
      "stateMutability": "view",
      "type": "function"
    },
    {
      "inputs": [],
      "name": "SUSHI_FACTORY",
      "outputs": [
        {
          "internalType": "address",
          "name": "",
          "type": "address"
        }
      ],
      "stateMutability": "view",
      "type": "function"
    },
    {
      "inputs": [],
      "name": "SUSHI_QUOTER",
      "outputs": [
        {
          "internalType": "address",
          "name": "",
          "type": "address"
        }
      ],
      "stateMutability": "view",
      "type": "function"
    },
    {
      "inputs": [],
      "name": "WXDAI",
      "outputs": [
        {
          "internalType": "address",
          "name": "",
          "type": "address"
        }
      ],
      "stateMutability": "view",
      "type": "function"
    },
    {
      "inputs": [
        {
          "internalType": "bytes",
          "name": "path",
          "type": "bytes"
        },
        {
          "internalType": "uint256",
          "name": "maxAmountIn",
          "type": "uint256"
        },
        {
          "internalType": "uint256",
          "name": "bzzAmountOut",
          "type": "uint256"
        },
        {
          "components": [
            {
              "internalType": "address",
              "name": "owner",
              "type": "address"
            },
            {
              "internalType": "address",
              "name": "nodeAddress",
              "type": "address"
            },
            {
              "internalType": "uint256",
              "name": "initialBalancePerChunk",
              "type": "uint256"
            },
            {
              "internalType": "uint8",
              "name": "depth",
              "type": "uint8"
            },
            {
              "internalType": "uint8",
              "name": "bucketDepth",
              "type": "uint8"
            },
            {
              "internalType": "bytes32",
              "name": "nonce",
              "type": "bytes32"
            },
            {
              "internalType": "bool",
              "name": "immutable_",
              "type": "bool"
            }
          ],
          "internalType": "struct SushiSwapStampsRouter.CreateBatchParams",
          "name": "p",
          "type": "tuple"
        }
      ],
      "name": "createBatch",
      "outputs": [],
      "stateMutability": "nonpayable",
      "type": "function"
    },
    {
      "inputs": [
        {
          "internalType": "bytes",
          "name": "path",
          "type": "bytes"
        },
        {
          "internalType": "uint256",
          "name": "maxAmountIn",
          "type": "uint256"
        },
        {
          "internalType": "uint256",
          "name": "bzzAmountOut",
          "type": "uint256"
        },
        {
          "components": [
            {
              "internalType": "address",
              "name": "owner",
              "type": "address"
            },
            {
              "internalType": "address",
              "name": "nodeAddress",
              "type": "address"
            },
            {
              "internalType": "uint256",
              "name": "initialBalancePerChunk",
              "type": "uint256"
            },
            {
              "internalType": "uint8",
              "name": "depth",
              "type": "uint8"
            },
            {
              "internalType": "uint8",
              "name": "bucketDepth",
              "type": "uint8"
            },
            {
              "internalType": "bytes32",
              "name": "nonce",
              "type": "bytes32"
            },
            {
              "internalType": "bool",
              "name": "immutable_",
              "type": "bool"
            }
          ],
          "internalType": "struct SushiSwapStampsRouter.CreateBatchParams",
          "name": "p",
          "type": "tuple"
        }
      ],
      "name": "createBatchNative",
      "outputs": [],
      "stateMutability": "payable",
      "type": "function"
    },
    {
      "inputs": [
        {
          "internalType": "bytes",
          "name": "path",
          "type": "bytes"
        },
        {
          "internalType": "uint256",
          "name": "bzzAmountOut",
          "type": "uint256"
        }
      ],
      "name": "quoteMultiHop",
      "outputs": [
        {
          "internalType": "uint256",
          "name": "amountIn",
          "type": "uint256"
        }
      ],
      "stateMutability": "nonpayable",
      "type": "function"
    },
    {
      "inputs": [
        {
          "internalType": "address",
          "name": "tokenIn",
          "type": "address"
        },
        {
          "internalType": "uint24",
          "name": "fee",
          "type": "uint24"
        },
        {
          "internalType": "uint256",
          "name": "bzzAmountOut",
          "type": "uint256"
        }
      ],
      "name": "quoteSingleHop",
      "outputs": [
        {
          "internalType": "uint256",
          "name": "amountIn",
          "type": "uint256"
        }
      ],
      "stateMutability": "nonpayable",
      "type": "function"
    },
    {
      "inputs": [],
      "name": "stampsRegistry",
      "outputs": [
        {
          "internalType": "contract IStampsRegistry",
          "name": "",
          "type": "address"
        }
      ],
      "stateMutability": "view",
      "type": "function"
    },
    {
      "inputs": [
        {
          "internalType": "bytes",
          "name": "path",
          "type": "bytes"
        },
        {
          "internalType": "uint256",
          "name": "maxAmountIn",
          "type": "uint256"
        },
        {
          "internalType": "uint256",
          "name": "bzzAmountOut",
          "type": "uint256"
        },
        {
          "internalType": "bytes32",
          "name": "batchId",
          "type": "bytes32"
        },
        {
          "internalType": "uint256",
          "name": "topupAmountPerChunk",
          "type": "uint256"
        }
      ],
      "name": "topUp",
      "outputs": [],
      "stateMutability": "nonpayable",
      "type": "function"
    },
    {
      "inputs": [
        {
          "internalType": "bytes",
          "name": "path",
          "type": "bytes"
        },
        {
          "internalType": "uint256",
          "name": "maxAmountIn",
          "type": "uint256"
        },
        {
          "internalType": "uint256",
          "name": "bzzAmountOut",
          "type": "uint256"
        },
        {
          "internalType": "bytes32",
          "name": "batchId",
          "type": "bytes32"
        },
        {
          "internalType": "uint256",
          "name": "topupAmountPerChunk",
          "type": "uint256"
        }
      ],
      "name": "topUpNative",
      "outputs": [],
      "stateMutability": "payable",
      "type": "function"
    },
    {
      "inputs": [
        {
          "internalType": "int256",
          "name": "amount0Delta",
          "type": "int256"
        },
        {
          "internalType": "int256",
          "name": "amount1Delta",
          "type": "int256"
        },
        {
          "internalType": "bytes",
          "name": "data",
          "type": "bytes"
        }
      ],
      "name": "uniswapV3SwapCallback",
      "outputs": [],
      "stateMutability": "nonpayable",
      "type": "function"
    },
    {
      "stateMutability": "payable",
      "type": "receive"
    }
  ],
  "transactionHash": "0x55c5a6b12fd15d009a5e6cb355d3fa2bb0d3fa5587ebdf58a02aea2f7876bdc9",
  "args": [
    "0x5EBfBeFB1E88391eFb022d5d33302f50a46bF4f3"
  ],
  "numDeployments": 1,
  "solcInputHash": "255f96c59429e1e56480af0cdaa74e3a",
  "bytecode": "0x60a0346100b557601f611a1038819003918201601f19168301916001600160401b038311848410176100ba578084926020946040528339810103126100b557516001600160a01b038116908190036100b55780156100805760805260405161193f90816100d18239608051818181610733015281816114fb01526117170152f35b60405162461bcd60e51b815260206004820152600d60248201526c7a65726f20726567697374727960981b6044820152606490fd5b600080fd5b634e487b7160e01b600052604160045260246000fdfe6080604052600436101561001b575b361561001957600080fd5b005b60003560e01c80630e70205d146100db5780630f43a7df146100d65780632a426602146100d15780632cb1dd93146100cc578063348fdcc4146100c7578063604a52fb146100c25780638acc27b9146100bd578063a7c086be146100b8578063b753bb47146100b3578063b972d70d146100ae578063eaa4f401146100a95763fa461e330361000e576109cc565b61099d565b6108d1565b6108a2565b610762565b61071d565b6106ee565b6105e2565b61045c565b610308565b61018a565b6100f0565b60009103126100eb57565b600080fd5b346100eb5760003660031901126100eb57602060405173dbf3ea6f5bee45c02255b2c26a16f300502f68da8152f35b9181601f840112156100eb578235916001600160401b0383116100eb57602083818601950101116100eb57565b60a06003198201126100eb57600435906001600160401b0382116100eb576101769160040161011f565b909160243590604435906064359060843590565b346100eb576101983661014c565b929094916101af6101aa368786610ed0565b6112f2565b6040516370a0823160e01b80825233600483015260209792956001600160a01b038716959093909290919089816024818a5afa9384156102c9578a9387926000966102ce575b5061020961020e9495969733923691610ed0565b61130a565b60405190815233600482015293849060249082905afa9283156102c957610269610295946102709385937fc65f0fa5466fb164f60e47c03216e4cae4cf47cb57de7d15f9cbdd413028ace69a60009361029a575b5050610f38565b95886114e4565b60405193849384604091949392606082019560018060a01b0316825260208201520152565b0390a2005b6102ba929350803d106102c2575b6102b28183610e66565b810190610f07565b903880610262565b503d6102a8565b610f16565b8596506102ee6102099161020e96973d8a116102c2576102b28183610e66565b969594506101f5565b6001600160a01b038116036100eb57565b346100eb5760603660031901126100eb57600435610325816102f7565b60243562ffffff811681036100eb576103e891610386608092610358610349610e87565b6001600160a01b039094168452565b73dbf3ea6f5bee45c02255b2c26a16f300502f68da6020840152604435604084015262ffffff166060830152565b60008183015260408051635e90b82560e11b815282516001600160a01b039081166004830152602084015181166024830152918301516044820152606083015162ffffff166064820152608090920151166084820152918290819060a4820190565b0381600073b1e835dc2785b52265711e17fccb0fd018226a6e5af180156102c9576104269160009161042a575b506040519081529081906020820190565b0390f35b61044c915060803d608011610455575b6104448183610e66565b810190610f5b565b50505038610415565b503d61043a565b6104653661014c565b91929094938134106105895773e91d153e0b41518a2ce8dd3d7944fa863463a97d94853b156100eb57604051630d0e30db60e41b8152600081600481878b5af19283156102c957610209879386936104c696610570575b5030923691610ed0565b6040516370a0823160e01b815230600482015293602090859060249082905afa9081156102c95761052661052d9285927fc65f0fa5466fb164f60e47c03216e4cae4cf47cb57de7d15f9cbdd413028ace69760009261054f575b50610f38565b92866114e4565b60408051600081526020810192909252810191909152606090a2610019611614565b61056991925060203d6020116102c2576102b28183610e66565b9038610520565b8061057d61058392610e33565b806100e0565b386104bc565b604051631ac4c73760e11b8152600490fd5b6101406003198201126100eb576004356001600160401b0381116100eb57816105c69160040161011f565b929092916024359160e06044359260631901126100eb57606490565b6105eb3661059b565b928294919434106105895773e91d153e0b41518a2ce8dd3d7944fa863463a97d91823b156100eb57604051630d0e30db60e41b815260008160048188885af19283156102c9576102098893879361064a96610570575030923691610ed0565b6040516370a0823160e01b815230600482015290602090829060249082905afa80156102c9577f1ec8178b486abb6332d45b8822f76f29e264fc077dc6ae1d5db41f9a1f2be645926106a39260009261054f5750610f38565b926106b7816106b23686610fb0565b611700565b926001600160a01b03906106ca90611041565b604080516000815260208101979097528601929092521692606090a3610019611614565b346100eb5760003660031901126100eb57602060405173e91d153e0b41518a2ce8dd3d7944fa863463a97d8152f35b346100eb5760003660031901126100eb576040517f00000000000000000000000000000000000000000000000000000000000000006001600160a01b03168152602090f35b346100eb576107703661059b565b929093916107826101aa368486610ed0565b6040516370a0823160e01b8082523360048301526001600160a01b039492938486169360209391908483602481895afa9889156102c9578b9360009a610871575b5091859493916102096107d99433923691610ed0565b60405190815233600482015292839060249082905afa80156102c9577f1ec8178b486abb6332d45b8822f76f29e264fc077dc6ae1d5db41f9a1f2be6459561086c9361082d9360009361029a575050610f38565b9261084561083f886106b2368a610fb0565b96611041565b169560405193849384604091949392606082019560018060a01b0316825260208201520152565b0390a3005b6107d993919a509161020961089588979694883d8a116102c2576102b28183610e66565b9b929450509193946107c3565b346100eb5760003660031901126100eb57602060405173f78031cbca409f2fb6876bdfdbc1b2df24cf9bef8152f35b346100eb5760403660031901126100eb576004356001600160401b0381116100eb576000610905606492369060040161011f565b9283916040519485938492632f80bb1d60e01b84526040600485015281604485015284840137848382840101526024356024830152601f801991011681010301818373b1e835dc2785b52265711e17fccb0fd018226a6e5af180156102c9576104269160009161098057506040519081529081906020820190565b61044c91503d806000833e6109958183610e66565b8101906110ce565b346100eb5760003660031901126100eb57602060405173b1e835dc2785b52265711e17fccb0fd018226a6e8152f35b346100eb5760603660031901126100eb57600460243581356044356001600160401b0381116100eb57610a02903690850161011f565b6000949185841391821580610e13575b610e025790610a2391810190611174565b91610a458351602081015160601c916037603483015160e81c92015160601c90565b9291939060409687519889610a8e630b4c774160e11b948583528860209a89850191939262ffffff90604092606085019660018060a01b03809216865216602085015216910152565b0393878b73f78031cbca409f2fb6876bdfdbc1b2df24cf9bef9681885afa9a8b156102c9578c9b610de3575b506001600160a01b039a8b163303610dd35715610dcb5750935b865151602b1015610c9c57508697869786610af3610b509899516118a1565b94610b1486602081015160601c916037603483015160e81c92015160601c90565b94519687526001600160a01b038083168a8901908152908616602082015262ffffff909116604082015290999395938492918391829160600190565b03915afa80156102c95782918c91610c6f575b5016958615610c5f5792610bea610b8a8b999897969484610c06958f98169116109661121a565b978615610c44576401000276a49a5b81810151908b015190610bc9906001600160a01b0316610bb7610ea6565b9586526001600160a01b031683860152565b8a840152610bdc8a51938492830161126b565b03601f198101835282610e66565b8751630251596160e31b815298899788968795339087016112b9565b03925af180156102c957610c1957505080f35b81610c3892903d10610c3d575b610c308183610e66565b8101906112a3565b505080f35b503d610c26565b73fffd8963efd1fc6a506488495d951d5263988d259a610b99565b89516301dbb3ff60e61b81528590fd5b610c8f9150893d8b11610c95575b610c878183610e66565b8101906111f0565b38610b63565b503d610c7d565b93929794958092508791500151808311610da7575084015184929190879089906001600160a01b03168087163003610d4f5750875163a9059cbb60e01b8152338a820190815260208101949094529586949385935083906040010393165af19182156102c9578592610d22575b505015610d1557505080f35b516304aa965560e41b8152fd5b610d419250803d10610d48575b610d398183610e66565b810190611205565b3880610d09565b503d610d2f565b88516323b872dd60e01b81526001600160a01b0390911692810192835233602084015260408301939093529194859392849290919083906060010393165af19182156102c9578592610d2257505015610d1557505080f35b86516371c4efed60e01b815280890184815260208101929092529081906040010390fd5b905093610ad4565b895163f7a632f560e01b81528690fd5b610dfb919b50883d8a11610c9557610c878183610e66565b9938610aba565b60405163f7a632f560e01b81528490fd5b5086861315610a12565b634e487b7160e01b600052604160045260246000fd5b6001600160401b038111610e4657604052565b610e1d565b606081019081106001600160401b03821117610e4657604052565b90601f801991011681019081106001600160401b03821117610e4657604052565b6040519060a082018281106001600160401b03821117610e4657604052565b60405190610eb382610e4b565b565b6001600160401b038111610e4657601f01601f191660200190565b929192610edc82610eb5565b91610eea6040519384610e66565b8294818452818301116100eb578281602093846000960137010152565b908160209103126100eb575190565b6040513d6000823e3d90fd5b634e487b7160e01b600052601160045260246000fd5b91908203918211610f4557565b610f22565b519063ffffffff821682036100eb57565b91908260809103126100eb578151916020810151610f78816102f7565b916060610f8760408401610f4a565b92015190565b359060ff821682036100eb57565b801515036100eb57565b3590610eb382610f9b565b91908260e09103126100eb5760405160e081018181106001600160401b03821117610e465760405260c061103c8183958035610feb816102f7565b85526020810135610ffb816102f7565b60208601526040810135604086015261101660608201610f8d565b606086015261102760808201610f8d565b608086015260a081013560a086015201610fa5565b910152565b3561104b816102f7565b90565b6001600160401b038111610e465760051b60200190565b9080601f830112156100eb578151906020916110808161104e565b9361108e6040519586610e66565b81855260208086019260051b8201019283116100eb57602001905b8282106110b7575050505090565b8380916110c384610f4a565b8152019101906110a9565b6080818303126100eb5780519260209283830151936001600160401b03948581116100eb5784019082601f830112156100eb5781519161110d8361104e565b9261111b6040519485610e66565b808452828085019160051b830101918583116100eb578301905b82821061115b57505050509360408401519081116100eb57606091610f87918501611065565b8380918351611169816102f7565b815201910190611135565b906020828203126100eb5781356001600160401b03928382116100eb57016060818303126100eb57604051926111a984610e4b565b81359081116100eb57810182601f820112156100eb576040928160206111d193359101610ed0565b835260208101356111e1816102f7565b60208401520135604082015290565b908160209103126100eb575161104b816102f7565b908160209103126100eb575161104b81610f9b565b600160ff1b8114610f455760000390565b919082519283825260005b848110611257575050826000602080949584010152601f8019910116010190565b602081830181015184830182015201611236565b60208152606060406112888451836020860152608085019061122b565b60208501516001600160a01b03168483015293015191015290565b91908260409103126100eb576020825192015190565b6001600160a01b039182168152911515602083015260408201929092529116606082015260a06080820181905261104b9291019061122b565b805180601319810111610f455701600c015160601c90565b929091602b8451106114d25761133684602081015160601c916037603483015160e81c92015160601c90565b9195919391906001600160a01b038088169173dbf3ea6f5bee45c02255b2c26a16f300502f68d91983016114d25760408051630b4c774160e11b81526001600160a01b039a8b16600482015299881660248b015262ffffff9190911660448a01529760208160648173f78031cbca409f2fb6876bdfdbc1b2df24cf9bef5afa80156102c95782916000916114b3575b50169586156114a25761142a9795936113ea6000948b9997946114389416109361121a565b94838514611484576114186401000276a4985b611405610ea6565b9384526001600160a01b03166020840152565b8882015287519889916020830161126b565b03601f198101895288610e66565b611458865197889687958694630251596160e31b865230600487016112b9565b03925af180156102c95761146a575050565b8161148092903d10610c3d57610c308183610e66565b5050565b61141873fffd8963efd1fc6a506488495d951d5263988d25986113fd565b88516301dbb3ff60e61b8152600490fd5b6114cc915060203d602011610c9557610c878183610e66565b386113c5565b6040516320db826760e01b8152600490fd5b60405163095ea7b360e01b81526001600160a01b037f000000000000000000000000000000000000000000000000000000000000000016600482018190526024820194909452909392600092916020816044818773dbf3ea6f5bee45c02255b2c26a16f300502f68da5af19081156102c95784916115c5575b50156115b357803b156115af57604051631549361960e01b8152600481019590955260248501919091529192918290604490829084905af180156102c9576115a25750565b8061057d610eb392610e33565b8280fd5b604051632546bed360e01b8152600490fd5b6115de915060203d602011610d4857610d398183610e66565b3861155d565b3d1561160f573d906115f582610eb5565b916116036040519384610e66565b82523d6000602084013e565b606090565b6040516370a0823160e01b815230600482015273e91d153e0b41518a2ce8dd3d7944fa863463a97d602082602481845afa9182156102c9576000926116df575b5081611691575b505047806116665750565b600080808093335af16116776115e4565b501561167f57565b6040516308520d7160e41b8152600490fd5b803b156100eb57604051632e1a7d4d60e01b815260048101929092526000908290602490829084905af180156102c9576116cc575b8061165b565b8061057d6116d992610e33565b386116c6565b6116f991925060203d6020116102c2576102b28183610e66565b9038611654565b60405163095ea7b360e01b81526001600160a01b037f000000000000000000000000000000000000000000000000000000000000000016600482018190526024820193909352600091906020816044818673dbf3ea6f5bee45c02255b2c26a16f300502f68da5af19081156102c9578391611882575b50156115b35780516001600160a01b031660208201519092906001600160a01b03166040830151936117ac606085015160ff1690565b608085015160ff169460a08101956117c960c08851930151151590565b92893b1561187e576040516317f8c86b60e11b81526001600160a01b039586166004820152959094166024860152604485019790975260ff928316606485015291909516608483015260a482015292151560c48401528260e48183875af19081156102c957610bdc926118659261186b575b5051604080516001600160a01b039095166020860190815290850191909152929182906060820190565b51902090565b8061057d61187892610e33565b3861183b565b8680fd5b61189b915060203d602011610d4857610d398183610e66565b38611776565b805190916016198201918211610f45576118ba82610eb5565b916118c86040519384610e66565b8083526118d481610eb5565b60209190601f190136858401378360005b8281106118f55750505050909150565b8681016037015182820185015283016118e556fea26469706673582212208e898522f172d776718061f168529fda04f44aee90ca8b1d2114da180ee6b95164736f6c63430008170033",
  "devdoc": {
    "kind": "dev",
    "methods": {
      "createBatch(bytes,uint256,uint256,(address,address,uint256,uint8,uint8,bytes32,bool))": {
        "details": "`tokenIn` must be pre-approved to this contract for at least `maxAmountIn`.",
        "params": {
          "bzzAmountOut": "Exact BZZ needed  (= swarmBatchTotal = initialBalancePerChunk × 2^depth)",
          "maxAmountIn": "Maximum tokenIn to spend (slippage protection)",
          "p": "Batch creation parameters",
          "path": "Exact-output path: BZZ ++ fee ++ [mid ++ fee]* ++ tokenIn"
        }
      },
      "createBatchNative(bytes,uint256,uint256,(address,address,uint256,uint8,uint8,bytes32,bool))": {
        "details": "Send msg.value ≥ maxAmountIn. Excess xDAI is refunded.",
        "params": {
          "bzzAmountOut": "Exact BZZ needed",
          "maxAmountIn": "Maximum xDAI to spend",
          "p": "Batch creation parameters",
          "path": "Exact-output path where the final token MUST be WXDAI:                     BZZ ++ fee ++ [mid ++ fee]* ++ WXDAI"
        }
      },
      "quoteMultiHop(bytes,uint256)": {
        "params": {
          "bzzAmountOut": "Exact BZZ amount wanted",
          "path": "Exact-output encoded path: BZZ ++ fee ++ [mid ++ fee]* ++ tokenIn"
        },
        "returns": {
          "amountIn": " Input tokens required (before slippage)"
        }
      },
      "quoteSingleHop(address,uint24,uint256)": {
        "params": {
          "bzzAmountOut": "Exact BZZ amount wanted",
          "fee": "Pool fee tier (e.g. 500, 3000, 10000)",
          "tokenIn": "Input token (use WXDAI for native xDAI quotes)"
        },
        "returns": {
          "amountIn": " Input tokens required (before slippage)"
        }
      },
      "topUp(bytes,uint256,uint256,bytes32,uint256)": {
        "details": "`tokenIn` must be pre-approved to this contract for at least `maxAmountIn`.",
        "params": {
          "batchId": "Batch to top up",
          "bzzAmountOut": "Exact BZZ needed (= topupAmountPerChunk × 2^depth)",
          "maxAmountIn": "Maximum tokenIn to spend",
          "path": "Exact-output path: BZZ ++ fee ++ [mid ++ fee]* ++ tokenIn",
          "topupAmountPerChunk": "Per-chunk top-up amount (matches registry call)"
        }
      },
      "topUpNative(bytes,uint256,uint256,bytes32,uint256)": {
        "details": "Send msg.value ≥ maxAmountIn. Excess xDAI is refunded.",
        "params": {
          "batchId": "Batch to top up",
          "bzzAmountOut": "Exact BZZ needed",
          "maxAmountIn": "Maximum xDAI to spend",
          "path": "BZZ ++ fee ++ [mid ++ fee]* ++ WXDAI",
          "topupAmountPerChunk": "Per-chunk top-up amount"
        }
      },
      "uniswapV3SwapCallback(int256,int256,bytes)": {
        "details": "Implements the Uniswap V3 callback interface (SushiSwap V3 is compatible).         For multi-hop swaps, this callback chains into the next pool swap before         paying the current pool, routing tokens directly between pools."
      }
    },
    "version": 1
  },
  "userdoc": {
    "kind": "user",
    "methods": {
      "BZZ()": {
        "notice": "BZZ token on Gnosis"
      },
      "SUSHI_FACTORY()": {
        "notice": "SushiSwap V3 Factory on Gnosis"
      },
      "SUSHI_QUOTER()": {
        "notice": "SushiSwap V3 QuoterV2 on Gnosis"
      },
      "WXDAI()": {
        "notice": "Wrapped xDAI on Gnosis"
      },
      "createBatch(bytes,uint256,uint256,(address,address,uint256,uint8,uint8,bytes32,bool))": {
        "notice": "Swap `tokenIn` → BZZ via the given path and create a Swarm stamp batch."
      },
      "createBatchNative(bytes,uint256,uint256,(address,address,uint256,uint8,uint8,bytes32,bool))": {
        "notice": "Swap native xDAI → BZZ and create a Swarm stamp batch."
      },
      "quoteMultiHop(bytes,uint256)": {
        "notice": "Quote: how many input tokens are needed to get exactly `bzzAmountOut` BZZ         via a multi-hop path."
      },
      "quoteSingleHop(address,uint24,uint256)": {
        "notice": "Quote: how many `tokenIn` are needed to get exactly `bzzAmountOut` BZZ         via a single-hop pool."
      },
      "topUp(bytes,uint256,uint256,bytes32,uint256)": {
        "notice": "Swap `tokenIn` → BZZ and top up an existing Swarm stamp batch."
      },
      "topUpNative(bytes,uint256,uint256,bytes32,uint256)": {
        "notice": "Swap native xDAI → BZZ and top up an existing Swarm stamp batch."
      },
      "uniswapV3SwapCallback(int256,int256,bytes)": {
        "notice": "Called by a SushiSwap V3 pool during swap execution."
      }
    },
    "version": 1
  },
  "storageLayout": {
    "storage": [],
    "types": null
  }
}